:02000000FE2FD1
:100EB200F100710803195E2F622F831203130614C7
:100EC200652F831203130610A630F000F00B672F74
:100ED200000071186D2F712F831203130614742FE3
:100EE200831203130610A630F000F00B762F0000D9
:100EF20008008316031386010730831203139F0031
:100F0200AA30A1270B30FD002630FC005D30FB002B
:100F1200FB0B892FFC0B892FFD0B892F902F55304E
:100F2200A1270B30FD002630FC005D30FB00FB0BDF
:100F3200982FFC0B982FFD0B982F9F2F812F0028A5
:100F4200F600F401F501013059270130F4070318C6
:100F5200F50A0030F5077508803AFF0080307F02FD
:100F6200031DB52F08307402031CB82FB92FA42F0C
:100F7200F701F8017608F200770AC12F0310F20C8C
:100F8200FF3E031DBF2F7208013959270130F707B1
:100F92000318F80A0030F8077808803AFF0080301A
:100FA2007F02031DD62F08307702031CD92FDA2FB8
:100FB200BB2F7609F300F901FA017308F200790AEE
:100FC200E42F0310F20CFF3E031DE22F72080139D9
:100FD20059270130F9070318FA0A0030FA077A088C
:100FE200803AFF0080307F02031DF92F083079021A
:0E0FF200031CFC2FFD2FDE2F080083017A2F39
:02400E00293F48
:00000001FF
