:100000000A128A11FC2F00308A000408840A820731
:1000100000344C3443344434203450344934433471
:10002000313436344634383437343734413400349C
:10003000543465347334743461346E3464346F34DE
:0200400000348A
:100AE000F900F30179080A128A1140260A128A11C4
:100AF0000800F900F301F30A79080A128A11402666
:100B00000A128A1108008316031307128711831231
:100B10000313071687150D30F100FB30F000F00BC2
:100B20008F2DF10B8F2D942D0800FB007B08031DEA
:100B30009A2D9B2D9F2D7A08803EFC00A22D7A08CD
:100B4000C03EFC007C080A128A1170250A128A1124
:100B500008008316031387118312031387110330D0
:100B6000F000F00BB12D8312031307160330F000D1
:100B7000F00BB82D8312031387150330F000F00B30
:100B8000BF2D0800D12D7A0884000A128A11032093
:100B90000A128A110A128A1179250A128A11013061
:100BA000FA077A0884000A128A1103200A128A11AD
:100BB000003A031DDC2DDD2DC32D08008316031321
:100BC00087118312031387150330F000F00BE62D15
:100BD0008312031307160330F000F00BED2D831280
:100BE000031387110330F000F00BF42D831203136D
:100BF00007120330F000F00BFB2D0800F100831604
:100C000003138711F201F11B062E0A2E8312031320
:100C100087150D2E8312031387110E2E0F2E000041
:100C20008312031307160330F000F00B152E831206
:100C3000031307121B2E1C2E00000310F10D0130B0
:100C4000F20708307202031C262E272E032E83166D
:100C5000031387152B2E2C2E000083120313071667
:100C60000330F000F00B322E831203130708071233
:100C70000330F000F00B3A2E83160313871108009F
:100C8000F7007708F500F030F5057708F400033039
:100C90000310F40DFF3E031D482E0310740DF600E3
:100CA000F030F605750873040838F8000A128A1146
:100CB000DE250A128A114E300A128A11FE250A1206
:100CC0008A1178080A128A11FE250A128A11000078
:100CD000780804380A128A11FE250A128A11702E29
:100CE000712E000078080A128A11FE250A128A1154
:100CF000760873040838F80078080A128A11FE256D
:100D00000A128A110000780804380A128A11FE2596
:100D10000A128A118B2E8C2E000078080A128A1172
:100D2000FE250A128A110A128A11A9250A128A11AD
:100D30001030F400F40B9A2E000008000F308316D8
:100D400003139F0007309C008501860187018801FD
:100D50008312031385018601870188018230831283
:100D60000313A100DD30A000A00BB42EA10BB42E04
:100D70000A128A1183250A128A1182308312031300
:100D8000A100DD30A000A00BC32EA10BC32E0A12C0
:100D90008A112D270A128A11FA0100300A128A11CB
:100DA00095250A128A111030FA000A128A11C225FA
:100DB0000A128A11FA0101300A128A1195250A12C3
:100DC0008A110130FA000A128A11C2250A128A1108
:100DD000063083120313A2001330A100AD30A0002F
:100DE000A00BF02EA10BF02EA20BF02E01300A1258
:100DF0008A1170250A128A110D3083120313A10083
:100E0000FB30A000A00B022FA10B022F0630831293
:100E10000313A2001330A100AD30A000A00B0E2FD1
:100E2000A10B0E2FA20B0E2F1030FA000A128A11FE
:100E3000C2250A128A11FA0101300A128A11952577
:100E40000A128A110130FA000A128A11C2250A1206
:100E50008A11142F0A128A1100288230FB00DD301B
:100E6000FA00FA0B312FFB0B312F362F0A128A11A1
:100E7000DE250A128A114E300A128A11FE250A1244
:100E80008A1108300A128A11FE250A128A110A12E2
:100E90008A11A9250A128A114130FB00EE30FA00AE
:100EA000FA0B502FFB0B502F00000A128A11DE257F
:100EB0000A128A114E300A128A11FE250A128A116C
:100EC00038300A128A11FE250A128A1100003C30BD
:100ED0000A128A11FE250A128A116E2F6F2F000046
:100EE00038300A128A11FE250A128A110730FB00D7
:100EF0007D30FA00FA0B7A2FFB0B7A2F38300A126A
:100F00008A11FE250A128A1100003C300A128A1149
:100F1000FE250A128A118C2F8D2F000038300A12FC
:100F20008A11FE250A128A11C730FA00972FFA0B90
:100F3000962F9A2F9B2F38300A128A11FE250A12FB
:100F40008A1100003C300A128A11FE250A128A1109
:100F5000A92FAA2F000038300A128A11FE250A1282
:100F60008A11C730FA00B42FFA0BB32FB72FB82F5E
:100F700028300A128A11FE250A128A1100002C302C
:100F80000A128A11FE250A128A11C62FC72F0000E5
:100F900028300A128A11FE250A128A110A128A11B1
:100FA000A9250A128A11C730FA00D62FFA0BD52FBD
:100FB000D92FDA2F28300A128A1170250A128A11C5
:100FC0000C300A128A1170250A128A1106300A1290
:100FD0008A1170250A128A1101300A128A117025AD
:100FE0000A128A110330FB009730FA00FA0BF62F31
:100FF000FB0BF62FFB2F080083010A128A119E2E8D
:02400E00393F38
:00000001FF
