:02000000FE2FD1
:100F800083160313850183120313850107309F0025
:100F9000831203130514051185100630F200133077
:100FA000F100AD30F000F00BD32FF10BD32FF20B8B
:100FB000D32FDA2F83120313051085140B30F200A0
:100FC0002630F1005D30F000F00BE42FF10BE42F40
:100FD000F20BE42FEB2F8312031385100515063057
:100FE000F2001330F100AD30F000F00BF52FF10BF3
:100FF000F52FF20BF52FFC2FC82F00288301C02FEF
:02400E00293F48
:00000001FF
