:060000000A128A110E280D
:10000800FE00030EF0000408F1000A08F2000A12CC
:100018008A15B42C0A128A111128F801F9018313E0
:10002800A0308400C0300A128A1529230A128A11C6
:1000380083010A128A15912D831203132D08B70024
:100048008030B7052D08B2003207BD00AC1F2D283F
:100058002E282F283D143D08031933283428432817
:100068003D0A031D3828392841280030AD000030EA
:10007800AC000030AB000030AA00AC174B280030B1
:10008800AD000030AC000030AB000030AA003108F1
:100098008039B7063108B2003207B800B01F5528BA
:1000A800562857283814380803195B285C286B2809
:1000B800380A031D6028612869280030B100003023
:1000C800B0000030AF000030AE00B0177328003029
:1000D800B1000030B0000030AF000030AE0038088A
:1000E8000319772878287D283D08031D7C287D285A
:1000F80086280030AD000030AC000030AB00003086
:10010800AA00612B2A08F40030080A128A15DF2396
:100118000A128A11750883120313C3007408C200F7
:100128004208B200B301B401B5013508BC00340877
:10013800BB003308BA003208B9004308B200B30163
:10014800B401B5013508C1003408C0003308BF0048
:100158003208BE002B08F4002F080A128A15DF2384
:100168000A128A11750883120313C3007408C200A7
:100178004208B200B301B401B5013208B907330827
:1001880003110318013E0319CA28BA0734080311DA
:100198000318013E0319D128BB07350803110318BA
:1001A800013E0319D828BC074308B200B301B401C3
:1001B800B5013208BE07330803110318013E0319BD
:1001C800E628BF07340803110318013E0319ED2878
:1001D800C007350803110318013E0319F428C107A5
:1001E8002C08F4002E080A128A15DF230A128A1135
:1001F800750883120313C3007408C2004208B200D2
:10020800B301B401B5013208B90733080311031863
:10021800013E03191029BA07340803110318013ED7
:1002280003191729BB07350803110318013E0319E1
:100238001E29BC074308B200B301B401B501320856
:10024800BE07330803110318013E03192C29BF0701
:10025800340803110318013E03193329C007350870
:1002680003110318013E03193A29C1070830B200E7
:100278000310B90DBA0DBB0DBC0DB20B3C292B08F0
:10028800F4002E080A128A15DF230A128A1175084B
:1002980083120313C3007408C2004208B200430863
:1002A800B300B401B5013208B907330803110318C4
:1002B800013E03196029BA07340803110318013EE7
:1002C80003196729BB07350803110318013E0319F1
:1002D8006E29BC072A08F4002F080A128A15DF23A2
:1002E8000A128A11750883120313C3007408C20026
:1002F8004208B2004308B300B401B5013208B90797
:10030800330803110318013E03198B29BA0734086F
:1003180003110318013E03199229BB07350803117D
:100328000318013E03199929BC070830B2000310CD
:10033800B90DBA0DBB0DBC0DB20B9B292A08F400F0
:100348002E080A128A15DF230A128A1175088312E9
:100358000313C3007408C2004208B2004308B30084
:10036800B401B5013208B907330803110318013E77
:100378000319BF29BA07340803110318013E0319EA
:10038800C629BB07350803110318013E0319CD29F7
:10039800BC072B08F40030080A128A15DF230A125A
:1003A8008A11750883120313C3007408C200420837
:1003B800B2004308B300B401B5013208BE073308E0
:1003C80003110318013E0319EA29BF073408031172
:1003D8000318013E0319F129C00735080311031852
:1003E800013E0319F829C1072C08F4002F080A1246
:1003F8008A15DF230A128A11750883120313C300B2
:100408007408C2004208B2004308B300B401B50141
:100418003208BE07330803110318013E0319152AD1
:10042800BF07340803110318013E03191C2AC0072B
:10043800350803110318013E0319232AC1072C08A4
:10044800F40030080A128A15DF230A128A11750887
:1004580083120313C3007408C2004208B2004308A1
:10046800B300B401B50108300310B20DB30DB40DDB
:10047800B50DFF3E031D382A3208BE0733080311A5
:100488000318013E0319492ABF073408031103184A
:10049800013E0319502AC007350803110318013E0D
:1004A8000319572AC1073908B2003A08B3003B08B4
:1004B800B4003C08B50018300310B50CB40CB30CEC
:1004C800B20CFF3E031D602A3208BE073308031131
:1004D8000318013E0319712ABF07340803110318D2
:1004E800013E0319782AC007350803110318013E95
:1004F80003197F2AC1070830B2000310B90DBA0DDD
:10050800BB0DBC0DB20B812A3D083807B200B30100
:10051800B30D3208823EC20033080318013EFF3E85
:10052800C300B32A0130B2000310BE0DBF0DC00DC9
:10053800C10DB20B982ABC1FA22AA32AA42A3E14D2
:100548000130B2000310B90DBA0DBB0DBC0DB20BD2
:10055800A62AFF30C2070318C30AFF30C307C01F0B
:10056800B62AB72A962AB801BC1FBB2ABC2AD82AA1
:10057800FF303905B200FF303A05B300FF303B05C4
:10058800B4007F303C05B500350834043304320428
:100598000319CF2AD02AD32A0130B800D82A3E1C02
:1005A800D62AD72AD82AD02A38080319DC2ADD2ADD
:1005B8000E2B0130BE07003003180130BF07003092
:1005C80003180130C007003003180130C107411C6F
:1005D800EE2AEF2A0E2B3E08B2003F08B30040086F
:1005E800B4004108B5000130B600350DB50CB40CA7
:1005F800B30CB20CB60BF92A3508C1003408C00098
:100608003308BF003208BE000130C2070318C30A0E
:100618000030C3074308803AFF0080307F02031D83
:10062800172BFF304202031C1A2B1B2B262B7F3063
:1006380083120313C1008030C0000030BF000030B7
:10064800BE00572B831203134308803AFF00803003
:100658007F02031D312B013042020318342B352B46
:10066800412B003083120313C1000030C00000305A
:10067800BF000030BE00B701572B83120313420896
:10068800BD00FF30BE05FF30BF057F30C00500301C
:10069800C1053D1C502B512B522BC0173D08B200F1
:1006A8000310320CC1003708C1044108AD004008EE
:1006B800AC003F08AB003E08AA00080083120313F1
:1006C800610883160313C0008030C005831203132A
:1006D8006108E600660783160313C200831203133A
:1006E800E01F772B782B7B2B83160313421483167A
:1006F800031342080319812B822B952B420A031DF1
:10070800862B872B912B003083120313E1000030D6
:10071800E0000030DF000030DE008312E017E10166
:100728009F2B003083120313E1000030E0000030FB
:10073800DF000030DE00650883160313C100803037
:10074800C105410840060319AA2BAB2BAC2B401757
:10075800831203136508E600660783160313C100B6
:1007680083120313E41FB92BBA2BBD2B8316031373
:1007780041148316031341080319C32BC42BD72B29
:10078800410A031DC82BC92BD32B00308312031336
:10079800E5000030E4000030E3000030E20083129E
:1007A800E417E501E12B003083120313E500003064
:1007B800E4000030E3000030E2008316031342082F
:1007C80041020318E82BE92B2F2C401FEC2BED2BB3
:1007D800EF2B8030C0064208C3004108C20043081E
:1007E800C100831203135E0883160313C300831228
:1007F80003136208DE0083160313430883120313EE
:10080800E2005F0883160313C3008312031363080F
:10081800DF0083160313430883120313E300600801
:1008280083160313C300831203136408E0008316BE
:100838000313430883120313E400610883160313A8
:10084800C300831203136508E100831603134308EA
:1008580083120313E50083160313C30141088312AF
:100868000313E600E7016708E9008316031342084B
:10087800831203136602E800031CE9036908803A3F
:10088800FF0080307F02031D4B2C1A306802031CC6
:100898004E2C4F2C952C83120313610860045F04BF
:1008A8005E04031D582C5A2C01305B2C0030831633
:1008B8000313C300003083120313E1000030E0008B
:1008C8000030DF000030DE00831603134108C20049
:1008D8009D2C431C702C712C7C2C43088312031311
:1008E800E6000310660C013883160313C3007E2C40
:1008F8000310C30C831203135E1C832C842C872CD7
:1009080083160313C31701308312E600610DE10C4F
:10091800E00CDF0CDE0CE60B8A2C01308316031387
:10092800C2078316031341084202031C9C2C9D2C0A
:100938006D2C401BA02CA12CF92C4208031DA52CC2
:10094800A62CB12C003083120313E1000030E00024
:100958000030DF000030DE00512E831203136208DE
:10096800DE07630803110318013E0319BC2CDF07D7
:10097800640803110318013E0319C32CE007650836
:1009880003110318013E0319CA2CE107611CCD2C81
:10099800CE2CBF2D83160313431CD32CD42CDF2C51
:1009A800430883120313E6000310660C013883160C
:1009B8000313C300E12C0310C30C831203135E1C42
:1009C800E62CE72CEA2C83160313C3170130831295
:1009D800E600610DE10CE00CDF0CDE0CE60BED2C03
:1009E800013083160313C207BF2D83120313610856
:1009F800803AFF006508803A7F02031D0D2D6408C8
:100A08006002031D0D2D63085F02031D0D2D620892
:100A18005E020318102D112D6C2DFF30E600FF30FB
:100A2800E700FF30E800FF30E9006208EA006308E9
:100A3800EB006408EC006508ED005E08EA025F0858
:100A4800031C5F0F282D292DEB026008031C600F83
:100A58002E2D2F2DEC026108031C610F342D352D2E
:100A6800ED026A08E6076B0803186B0F3C2D3D2D55
:100A7800E7076C0803186C0F422D432DE8076D0833
:100A880003186D0AE9076908E1006808E0006708CB
:100A9800DF006608DE00803083160313C0064303B8
:100AA800FF3AC3004308031D5A2D5B2D7A2D0130F0
:100AB80083120313DE07003003180130DF0700300C
:100AC80003180130E007003003180130E1077A2DE0
:100AD8006208DE026308031C630FDF026408031C5C
:100AE800640FE0026508031C650FE10283126108C8
:100AF80060045F045E04031D822D832DBA2D8316C6
:100B080003134308031D892D8A2DBA2D0030831243
:100B18000313E1000030E0000030DF000030DE00A9
:100B2800512E0130E6000310DE0DDF0DE00DE10D62
:100B3800E60B972D83160313C31FA32DA42DA72DF2
:100B4800831203135E1483160313431CAC2DAD2DBF
:100B5800B12D0314430DC300B32D0310C30D420878
:100B68000319B72DB82DBA2D0130C2028312E01F28
:100B7800BE2DBF2D952D83160313C101C31FC52D8F
:100B8800C62DD82D43087F390319CB2DCC2DD12D57
:100B9800013083160313C100D82D831203135E1C82
:100BA800D62DD72DD82DCC2D831603134108031924
:100BB800DE2DDF2D152E013083120313DE070030E2
:100BC80003180130DF07003003180130E007003058
:100BD80003180130E107611CF22DF32D152E5E0874
:100BE800E6005F08E7006008E8006108E9000130F6
:100BF800EA00690DE90CE80CE70CE60CEA0BFD2DA0
:100C08006908E1006808E0006708DF006608DE00A0
:100C180083160313420A0319122E132E152E0130C0
:100C2800C20783160313420A03191B2E1C2E212EFA
:100C38004208031D202E212E332E00308312031369
:100C4800E1000030E0000030DF000030DE008316F5
:100C580003134208031D312E322E332EC001421CCD
:100C6800362E372E3B2E83120313E0173F2E7F308C
:100C780083120313E0058316031342088312031338
:100C8800E6000310660CE10083160313C01F4D2E07
:100C98004E2E512E83120313E117080083160313F7
:100CA800871707131815CF1B692E4F08031D6A2EC7
:100CB8004E08031D6A2E4D08031D6A2E01304C0292
:100CC800031D662E031C692E6A2EE52E4A308312F8
:100CD8000313CB007430CA002430C9000030C800A8
:100CE800831603134F08F7004E08F6004D08F50069
:100CF8004C08F40001300A128A1110270A128A11CE
:100D0800770883120313B1007608B0007508AF00A6
:100D18007408AE004130AD008030AC000030AB004C
:100D28000030AA000A128A1120200A128A1183129E
:100D380003132D08C7002C08C6002B08C5002A0875
:100D4800C4000A128A1536260A128A11831203135E
:100D58004708E5004608E4004508E3004408E200C7
:100D6800BF30E1008030E0000030DF000030DE00FE
:100D78000A128A1162230A128A1183120313610864
:100D880083160313C7008312031360088316031323
:100D9800C600831203135F0883160313C50083126A
:100DA80003135E0883160313C4000A128A15052567
:100DB8000A128A11831603134508D1004408D0008B
:100DC800EB2E193083160313D0000030D1005008E1
:100DD8009900181283120313981783160313981691
:100DE800831203131816831603138C160B178B170D
:100DF800F901F801831203138C1E032F042F052F0A
:100E08001A088C1E082F092F0A2F1A088C1E0D2F5E
:100E18000E2F0F2F1A08080083120313A4002408AA
:100E28000319172F182F2C2FF71F1B2F1C2F2C2FB0
:100E38007409A6007509A7007609A8007709A90012
:100E4800A60A0319A70A0319A80A0319A90A342F1D
:100E58007708A9007608A8007508A7007408A600F6
:100E68007708760475047404031D3B2F3C2F452F27
:100E78000030F7000030F6000030F5000030F400D4
:100E8800C52F9630A500532F0130A5070130031058
:100E9800A90CA80CA70CA60CFF3E031D4B2FFE3077
:100EA8002905031D582F592F482F732F0130A507E7
:100EB8000130A607003003180130A70700300318D7
:100EC8000130A807003003180130A90701300310CA
:100ED800A90CA80CA70CA60CFF3E031D6B2FFF3016
:100EE8002905031D782F792F5A2F852F0130A50248
:100EF8000130A0000310A60DA70DA80DA90DA00B89
:100F08007E2FA81B882F892F8F2F023025020318C8
:100F18008E2F8F2F7A2F2518922F932F9B2FFF30EC
:100F2800A605FF30A7057F30A805FF30A9050310E7
:100F3800A50C2508A000A101A201A30118300310E7
:100F4800A00DA10DA20DA30DFF3E031DA32F200888
:100F5800A6042108A7042208A8042308A904240831
:100F68000319B72FB82FBD2FF71FBB2FBC2FBD2FCD
:100F7800A9172908F7002808F6002708F500260809
:100F8800F400080078080319CA2FCB2FFD2F8B1304
:100F9800790883120313A00075082002031CD52FBB
:100FA800D62FD92F7508FF3EA000A101EB2F2108ED
:100FB800A03E840083130008FF0021087407F60090
:100FC800760884007F08831780000130A107200875
:100FD8002102031CF02FF12FDB2F20087407F600E5
:100FE8007608840083178001F901F8018B17013016
:060FF800FE2F003008008E
:1010000008308A000408840A8207003445345334C7
:10101000513455344534523444344134003444342A
:10102000493452344534493454344134003446341C
:10103000523445344E345434453400345034413401
:101040005234413452340034413443344B340A3442
:08105000003452344534003431
:10160000780808008312031388100800831203135C
:101610008614061506168616080083120313861014
:101620000615061286160800831203138614061187
:101630000616861208008312031386100615061676
:1016400086120800831203138614061106128616EA
:10165000080064008001840A0406031900340406AB
:101660002A2BF40083160313981C372B382B322BAC
:101670007408831203139900080005300A128A15B2
:1016800038240A128A150A128A1502230A128A15A8
:1016900008008316031386100611061286120A121A
:1016A0008A1506230A128A15080083160313881266
:1016B00088130813881083120313881288130813E1
:1016C00088100800702BC730F600662BF60B652BD0
:1016D000692B00000130F4020030031CF503F50211
:1016E00074087504031D752B762B632B08000430DA
:1016F0000A128A1538240A128A150030831203133D
:10170000A000A1000030A200A300A40101300A1231
:101710008A1575240A128A15080002300A128A15E1
:1017200038240A128A15003083120313A000A10086
:101730000030A200A300A40101300A128A1575240A
:101740000A128A150800B22B750884000A128A153D
:1017500000200A128A150A128A1531230A128A15E4
:101760000130F507750884000A128A1500200A1254
:101770008A15003A031DBD2BBE2BA42B0800063092
:10178000831603139F0007309C000A128A15492311
:101790000A128A150A128A1555230A128A15003070
:1017A00083160313CF000030CE002530CD008030EB
:1017B000CC000A128A1152260A128A1508008312D6
:1017C0000313A400A001A1017408F600F701760834
:1017D000A2007708A300241CEE2BEF2BF52B220888
:1017E000A0070318A10A2308A10701300310A20DC6
:1017F000A30DFF3E031DF62B0310A40C2408031DAC
:10180000022C032CEB2B2108F5002008F400080023
:101810000D2C0130F4070130F507750884000A1219
:101820008A1500200A128A15F600740884008317AE
:1018300000087606031D1D2C1E2C252C7408840020
:101840000008031D242C252C092C750884000A127D
:101850008A1500200A128A15F60074088400000810
:10186000F70076087702F400F501031CF503080081
:10187000F60083120313881288130813522C88165B
:10188000742C8817742C0817742C88168817742CDD
:1018900088160817742C88170817742C8816881750
:1018A0000817742C7608F400F5017508003A03193E
:1018B0005A2C742C7408003A0319742C013A031939
:1018C0003F2C033A0319412C013A0319432C073AE0
:1018D0000319452C013A0319482C033A03194B2CE0
:1018E000013A03194E2C742C080083120313A9002B
:1018F0002308A8002208A7009D2C88146430F40057
:101900000030F5000A128A1562230A128A15831222
:1019100003138810B32C8814F430F4000130F50060
:101920000A128A1562230A128A1583120313881079
:10193000B32C8814B32C8810B32C2908A500A60159
:101940002608003A0319A52C9B2C2508003A0319F8
:101950009B2C013A03197D2C033A03198B2C063A70
:101960000319992C9B2C0800831603138C1EB92C89
:10197000BA2CFC2C831203138C1EBF2CC02CFC2C05
:10198000981CC32CC42CC62C1812181618081A0838
:10199000F3007808031DCD2CCE2CFC2C0A307306E6
:1019A000031DD32CD42CE62C203079020318D92C1B
:1019B000DA2CE22C7908A03E8400831380010130E8
:1019C000F800FC2C83160313BF01DF2C0D307306C7
:1019D000031DEB2CEC2CED2CFC2C1F307902031892
:1019E000F22CF32CFC2C7908A03E8400730883139E
:1019F00080000130F907FC2C72088A00710884000D
:101A0000700E8300FE0E7E0E090003108316031372
:101A1000460D470D83120313EF006F08031D112DB0
:101A2000122D1D2D003083160313C7000030C60091
:101A30000030C5000030C400902D83160313440805
:101A4000C8004508C9004608CA004708CB001F3037
:101A50000310CB0CCA0CC90CC80CFF3E031D282D6B
:101A6000480883120313EE0083160313C617FF30D2
:101A7000C405FF30C505FF30C6050030C7059630E8
:101A800083120313EF02EF1F462D472D632D6F08BE
:101A9000803A973E03184D2D4E2D4F2D122D0130BB
:101AA000031083160313C70CC60CC50CC40CFF3EF1
:101AB000031D502D013083120313EF07031D612D09
:101AC000622D4F2D7E2D20306F02031C682D692D55
:101AD000792D122D013083160313C8000310C40D95
:101AE000C50DC60DC70DC80B6E2D01308312031333
:101AF000EF026F08031D7D2D7E2D6A2D6E080319E0
:101B0000822D832D902D83160313C409C509C609A0
:101B1000C709C40A0319C50A0319C60A0319C70A63
:101B200008000A128A15BF230A128A150A128A159A
:101B30008D230A128A150A128A1500230A128A15A1
:101B4000003A0319A42DA52D9B2D0A128A1577237F
:101B50000A128A159030F4002030F5000A128A111A
:101B6000C6270A128A15003A0319B72DB82D9B2DE6
:101B70009030F4001230F5000A128A1508240A1277
:101B80008A1574087504031DC62DC72DD22D0A129F
:101B90008A150D230A128A150A128A153D230A1284
:101BA0008A152B2E9030F4002430F5000A128A1585
:101BB00008240A128A1574087504031DE02DE12D0E
:101BC000E72D0A128A1514230A128A15CC2D90309B
:101BD000F4000A30F5000A128A1508240A128A1540
:101BE00074087504031DF52DF62DFC2D0A128A15B7
:101BF0001B230A128A15CC2D9030F4000130F50019
:101C00000A128A1508240A128A1574087504031D1D
:101C10000A2E0B2E112E0A128A1522230A128A1559
:101C2000CC2D9030F4001930F5000A128A150824E2
:101C30000A128A1574087504031D1F2E202E2B2EE0
:101C40000A128A1506230A128A150A128A158D238A
:101C50000A128A152B2E1F30F5000A128A15A323AB
:101C60000A128A159B2D0A128A110E288312031359
:101C70004B08D5008030D5054B08CC004C07DC0064
:101C8000CA1F432E442E452E5C145C080319492EAE
:101C90004A2E5A2E5C0A031D4E2E4F2E572E003010
:101CA000CB000030CA000030C9000030C800CA179D
:101CB000CB01622E0030CB000030CA000030C900DA
:101CC0000030C80047088039D5064708CC004C07CB
:101CD000DD00C61F6C2E6D2E6E2E5D145D0803197F
:101CE000722E732E832E5D0A031D772E782E802E82
:101CF0000030C7000030C6000030C5000030C4000E
:101D0000C617C7018B2E0030C7000030C600003058
:101D1000C5000030C4004708460445044404031DC0
:101D2000922E932EAA2E0030CB000030CA00003035
:101D3000C9000030C8008030CA047F30CB04550889
:101D4000CB044B08C7004A08C6004908C50048082C
:101D5000C400FF2F5C08031DAE2EAF2EB82E00303E
:101D6000C7000030C6000030C5000030C400FF2F9F
:101D70005C08CC00CD014D08CF005D084C02CE00C0
:101D8000031CCF034E087F3ED6004F080318013EC8
:101D9000003ED7004B08D4004A08D3004908D200BF
:101DA0004808D1000030CB000030CA000030C90024
:101DB0000030C8000030DB000030DA000030D9000D
:101DC0000030D800DD012C2F5D080319E82EE92E24
:101DD000092F0130CC000310D10DD20DD30DD40D3D
:101DE000CC0BEB2E0130CC000310C80DC90DCA0D71
:101DF000CB0DCC0BF42EDB1FFE2EFF2E002F481434
:101E00000130CC000310D80DD90DDA0DDB0DCC0B51
:101E1000022F47085402031D172F46085302031DC3
:101E2000172F45085202031D172F44085102031CA7
:101E30001A2F1B2F2A2F5B174408D1024508031CB9
:101E4000450FD2024608031C460FD3024708031C65
:101E5000470FD4020130DD071A305D02031C312F19
:101E6000322FE42E54085304520451040319392F1D
:101E70003A2F592F5814592F0130CC000310C80D98
:101E8000C90DCA0DCB0DCC0B3E2FDB1F482F492FA0
:101E90004A2F48140130CC000310D80DD90DDA0DAB
:101EA000DB0DCC0B4C2FFF30D6070318D70AFF30C1
:101EB000D707CA1F5C2F5D2F3C2FDD01DB1F612F71
:101EC000622F7E2FFF305805CC00FF305905CD0022
:101ED000FF305A05CE007F305B05CF004F084E041F
:101EE0004D044C040319752F762F792F0130DD0036
:101EF0007E2F481C7C2F7D2F7E2F762F5D080319A7
:101F0000822F832FB42F0130C8070030031801300F
:101F1000C907003003180130CA0700300318013028
:101F2000CB074B1C942F952FB42F4808CC004908A1
:101F3000CD004A08CE004B08CF000130D0004F0D35
:101F4000CF0CCE0CCD0CCC0CD00B9F2F4F08CB0060
:101F50004E08CA004D08C9004C08C8000130D60719
:101F60000318D70A0030D7075708803AFF0080309F
:101F70007F02031DBD2FFF305602031CC02FC12F4F
:101F8000CF2FFF3083120313D6000030D70000306C
:101F9000CB000030CA000030C9000030C8008312F6
:101FA00003135708803AFF0080307F02031DDA2FA9
:101FB000013056020318DD2FDE2FEB2F831203139F
:101FC000D601D7010030CB000030CA000030C90074
:101FD0000030C800D501831203135608DC005C1CD6
:101FE000F22FF32FF52FCA17F72F7F30CA055C08A1
:101FF000CC0003104C0CCB005508CB04A12E0800DC
:02400E003A3F37
:00000001FF
